{
  "contractName": "Payment",
  "abi": [
    {
      "inputs": [
        {
          "internalType": "address[]",
          "name": "_payees",
          "type": "address[]"
        },
        {
          "internalType": "uint256[]",
          "name": "_shares",
          "type": "uint256[]"
        }
      ],
      "stateMutability": "payable",
      "type": "constructor"
    },
    {
      "anonymous": false,
      "inputs": [
        {
          "indexed": true,
          "internalType": "contract IERC20",
          "name": "token",
          "type": "address"
        },
        {
          "indexed": false,
          "internalType": "address",
          "name": "to",
          "type": "address"
        },
        {
          "indexed": false,
          "internalType": "uint256",
          "name": "amount",
          "type": "uint256"
        }
      ],
      "name": "ERC20PaymentReleased",
      "type": "event"
    },
    {
      "anonymous": false,
      "inputs": [
        {
          "indexed": false,
          "internalType": "address",
          "name": "account",
          "type": "address"
        },
        {
          "indexed": false,
          "internalType": "uint256",
          "name": "shares",
          "type": "uint256"
        }
      ],
      "name": "PayeeAdded",
      "type": "event"
    },
    {
      "anonymous": false,
      "inputs": [
        {
          "indexed": false,
          "internalType": "address",
          "name": "from",
          "type": "address"
        },
        {
          "indexed": false,
          "internalType": "uint256",
          "name": "amount",
          "type": "uint256"
        }
      ],
      "name": "PaymentReceived",
      "type": "event"
    },
    {
      "anonymous": false,
      "inputs": [
        {
          "indexed": false,
          "internalType": "address",
          "name": "to",
          "type": "address"
        },
        {
          "indexed": false,
          "internalType": "uint256",
          "name": "amount",
          "type": "uint256"
        }
      ],
      "name": "PaymentReleased",
      "type": "event"
    },
    {
      "inputs": [
        {
          "internalType": "uint256",
          "name": "index",
          "type": "uint256"
        }
      ],
      "name": "payee",
      "outputs": [
        {
          "internalType": "address",
          "name": "",
          "type": "address"
        }
      ],
      "stateMutability": "view",
      "type": "function"
    },
    {
      "inputs": [
        {
          "internalType": "address payable",
          "name": "account",
          "type": "address"
        }
      ],
      "name": "release",
      "outputs": [],
      "stateMutability": "nonpayable",
      "type": "function"
    },
    {
      "inputs": [
        {
          "internalType": "contract IERC20",
          "name": "token",
          "type": "address"
        },
        {
          "internalType": "address",
          "name": "account",
          "type": "address"
        }
      ],
      "name": "release",
      "outputs": [],
      "stateMutability": "nonpayable",
      "type": "function"
    },
    {
      "inputs": [
        {
          "internalType": "contract IERC20",
          "name": "token",
          "type": "address"
        },
        {
          "internalType": "address",
          "name": "account",
          "type": "address"
        }
      ],
      "name": "released",
      "outputs": [
        {
          "internalType": "uint256",
          "name": "",
          "type": "uint256"
        }
      ],
      "stateMutability": "view",
      "type": "function"
    },
    {
      "inputs": [
        {
          "internalType": "address",
          "name": "account",
          "type": "address"
        }
      ],
      "name": "released",
      "outputs": [
        {
          "internalType": "uint256",
          "name": "",
          "type": "uint256"
        }
      ],
      "stateMutability": "view",
      "type": "function"
    },
    {
      "inputs": [
        {
          "internalType": "address",
          "name": "account",
          "type": "address"
        }
      ],
      "name": "shares",
      "outputs": [
        {
          "internalType": "uint256",
          "name": "",
          "type": "uint256"
        }
      ],
      "stateMutability": "view",
      "type": "function"
    },
    {
      "inputs": [
        {
          "internalType": "contract IERC20",
          "name": "token",
          "type": "address"
        }
      ],
      "name": "totalReleased",
      "outputs": [
        {
          "internalType": "uint256",
          "name": "",
          "type": "uint256"
        }
      ],
      "stateMutability": "view",
      "type": "function"
    },
    {
      "inputs": [],
      "name": "totalReleased",
      "outputs": [
        {
          "internalType": "uint256",
          "name": "",
          "type": "uint256"
        }
      ],
      "stateMutability": "view",
      "type": "function"
    },
    {
      "inputs": [],
      "name": "totalShares",
      "outputs": [
        {
          "internalType": "uint256",
          "name": "",
          "type": "uint256"
        }
      ],
      "stateMutability": "view",
      "type": "function"
    },
    {
      "stateMutability": "payable",
      "type": "receive"
    }
  ],
  "bytecode": "0x60806040526040516200238c3803806200238c833981810160405281019062000029919062000500565b8181805182511462000072576040517f08c379a00000000000000000000000000000000000000000000000000000000081526004016200006990620006b9565b60405180910390fd5b6000825111620000b9576040517f08c379a0000000000000000000000000000000000000000000000000000000008152600401620000b090620006fd565b60405180910390fd5b60005b825181101562000131576200011b838281518110620000e057620000df62000927565b5b6020026020010151838381518110620000fe57620000fd62000927565b5b60200260200101516200013c640100000000026401000000009004565b80806200012890620008aa565b915050620000bc565b505050505062000b1d565b600073ffffffffffffffffffffffffffffffffffffffff168273ffffffffffffffffffffffffffffffffffffffff161415620001af576040517f08c379a0000000000000000000000000000000000000000000000000000000008152600401620001a69062000697565b60405180910390fd5b60008111620001f5576040517f08c379a0000000000000000000000000000000000000000000000000000000008152600401620001ec906200071f565b60405180910390fd5b6000600260008473ffffffffffffffffffffffffffffffffffffffff1673ffffffffffffffffffffffffffffffffffffffff16815260200190815260200160002054146200027a576040517f08c379a00000000000000000000000000000000000000000000000000000000081526004016200027190620006db565b60405180910390fd5b6004829080600181540180825580915050600190039060005260206000200160009091909190916101000a81548173ffffffffffffffffffffffffffffffffffffffff021916908373ffffffffffffffffffffffffffffffffffffffff16021790555080600260008473ffffffffffffffffffffffffffffffffffffffff1673ffffffffffffffffffffffffffffffffffffffff1681526020019081526020016000208190555080600054620003319190620007d9565b6000819055507f40c340f65e17194d14ddddb073d3c9f888e3cb52b5aae0c6c7706b4fbc905fac82826040516200036a9291906200066a565b60405180910390a15050565b60006200038d62000387846200076a565b62000741565b90508083825260208201905082856020860282011115620003b357620003b26200098a565b5b60005b85811015620003e75781620003cc88826200046c565b845260208401935060208301925050600181019050620003b6565b5050509392505050565b600062000408620004028462000799565b62000741565b905080838252602082019050828560208602820111156200042e576200042d6200098a565b5b60005b85811015620004625781620004478882620004e9565b84526020840193506020830192505060018101905062000431565b5050509392505050565b6000815190506200047d8162000ae9565b92915050565b600082601f8301126200049b576200049a62000985565b5b8151620004ad84826020860162000376565b91505092915050565b600082601f830112620004ce57620004cd62000985565b5b8151620004e0848260208601620003f1565b91505092915050565b600081519050620004fa8162000b03565b92915050565b600080604083850312156200051a576200051962000994565b5b600083015167ffffffffffffffff8111156200053b576200053a6200098f565b5b620005498582860162000483565b925050602083015167ffffffffffffffff8111156200056d576200056c6200098f565b5b6200057b85828601620004b6565b9150509250929050565b620005908162000836565b82525050565b6000620005a5602c83620007c8565b9150620005b282620009aa565b604082019050919050565b6000620005cc603283620007c8565b9150620005d982620009f9565b604082019050919050565b6000620005f3602b83620007c8565b9150620006008262000a48565b604082019050919050565b60006200061a601a83620007c8565b9150620006278262000a97565b602082019050919050565b600062000641601d83620007c8565b91506200064e8262000ac0565b602082019050919050565b62000664816200086a565b82525050565b600060408201905062000681600083018562000585565b62000690602083018462000659565b9392505050565b60006020820190508181036000830152620006b28162000596565b9050919050565b60006020820190508181036000830152620006d481620005bd565b9050919050565b60006020820190508181036000830152620006f681620005e4565b9050919050565b6000602082019050818103600083015262000718816200060b565b9050919050565b600060208201905081810360008301526200073a8162000632565b9050919050565b60006200074d62000760565b90506200075b828262000874565b919050565b6000604051905090565b600067ffffffffffffffff82111562000788576200078762000956565b5b602082029050602081019050919050565b600067ffffffffffffffff821115620007b757620007b662000956565b5b602082029050602081019050919050565b600082825260208201905092915050565b6000620007e6826200086a565b9150620007f3836200086a565b9250827fffffffffffffffffffffffffffffffffffffffffffffffffffffffffffffffff038211156200082b576200082a620008f8565b5b828201905092915050565b600062000843826200084a565b9050919050565b600073ffffffffffffffffffffffffffffffffffffffff82169050919050565b6000819050919050565b6200087f8262000999565b810181811067ffffffffffffffff82111715620008a157620008a062000956565b5b80604052505050565b6000620008b7826200086a565b91507fffffffffffffffffffffffffffffffffffffffffffffffffffffffffffffffff821415620008ed57620008ec620008f8565b5b600182019050919050565b7f4e487b7100000000000000000000000000000000000000000000000000000000600052601160045260246000fd5b7f4e487b7100000000000000000000000000000000000000000000000000000000600052603260045260246000fd5b7f4e487b7100000000000000000000000000000000000000000000000000000000600052604160045260246000fd5b600080fd5b600080fd5b600080fd5b600080fd5b6000601f19601f8301169050919050565b7f5061796d656e7453706c69747465723a206163636f756e74206973207468652060008201527f7a65726f20616464726573730000000000000000000000000000000000000000602082015250565b7f5061796d656e7453706c69747465723a2070617965657320616e64207368617260008201527f6573206c656e677468206d69736d617463680000000000000000000000000000602082015250565b7f5061796d656e7453706c69747465723a206163636f756e7420616c726561647960008201527f2068617320736861726573000000000000000000000000000000000000000000602082015250565b7f5061796d656e7453706c69747465723a206e6f20706179656573000000000000600082015250565b7f5061796d656e7453706c69747465723a20736861726573206172652030000000600082015250565b62000af48162000836565b811462000b0057600080fd5b50565b62000b0e816200086a565b811462000b1a57600080fd5b50565b61185f8062000b2d6000396000f3fe6080604052600436106100a7576000357c0100000000000000000000000000000000000000000000000000000000900480638b83209b116100765780638b83209b146101ad5780639852595c146101ea578063ce7c2ac214610227578063d79779b214610264578063e33b7de3146102a1576100ee565b806319165587146100f35780633a98ef391461011c578063406072a91461014757806348b7504414610184576100ee565b366100ee577f6ef95f06320e7a25a04a175ca677b7052bdd97131872c2192525a629f51be7706100d56102cc565b346040516100e49291906111d1565b60405180910390a1005b600080fd5b3480156100ff57600080fd5b5061011a60048036038101906101159190610e91565b6102d4565b005b34801561012857600080fd5b50610131610496565b60405161013e91906112fc565b60405180910390f35b34801561015357600080fd5b5061016e60048036038101906101699190610f18565b61049f565b60405161017b91906112fc565b60405180910390f35b34801561019057600080fd5b506101ab60048036038101906101a69190610f18565b610526565b005b3480156101b957600080fd5b506101d460048036038101906101cf9190610f58565b61080a565b6040516101e1919061118d565b60405180910390f35b3480156101f657600080fd5b50610211600480360381019061020c9190610e64565b610852565b60405161021e91906112fc565b60405180910390f35b34801561023357600080fd5b5061024e60048036038101906102499190610e64565b61089b565b60405161025b91906112fc565b60405180910390f35b34801561027057600080fd5b5061028b60048036038101906102869190610eeb565b6108e4565b60405161029891906112fc565b60405180910390f35b3480156102ad57600080fd5b506102b661092d565b6040516102c391906112fc565b60405180910390f35b600033905090565b6000600260008373ffffffffffffffffffffffffffffffffffffffff1673ffffffffffffffffffffffffffffffffffffffff1681526020019081526020016000205411610356576040517f08c379a000000000000000000000000000000000000000000000000000000000815260040161034d9061121c565b60405180910390fd5b600061036061092d565b3073ffffffffffffffffffffffffffffffffffffffff16316103829190611349565b90506000610399838361039486610852565b610937565b905060008114156103df576040517f08c379a00000000000000000000000000000000000000000000000000000000081526004016103d69061129c565b60405180910390fd5b80600360008573ffffffffffffffffffffffffffffffffffffffff1673ffffffffffffffffffffffffffffffffffffffff168152602001908152602001600020600082825461042e9190611349565b9250508190555080600160008282546104479190611349565b9250508190555061045883826109a5565b7fdf20fd1e76bc69d672e4814fafb2c449bba3a5369d8359adf9e05e6fde87b05683826040516104899291906111a8565b60405180910390a1505050565b60008054905090565b6000600660008473ffffffffffffffffffffffffffffffffffffffff1673ffffffffffffffffffffffffffffffffffffffff16815260200190815260200160002060008373ffffffffffffffffffffffffffffffffffffffff1673ffffffffffffffffffffffffffffffffffffffff16815260200190815260200160002054905092915050565b6000600260008373ffffffffffffffffffffffffffffffffffffffff1673ffffffffffffffffffffffffffffffffffffffff16815260200190815260200160002054116105a8576040517f08c379a000000000000000000000000000000000000000000000000000000000815260040161059f9061121c565b60405180910390fd5b60006105b3836108e4565b8373ffffffffffffffffffffffffffffffffffffffff166370a08231306040518263ffffffff167c0100000000000000000000000000000000000000000000000000000000028152600401610608919061118d565b60206040518083038186803b15801561062057600080fd5b505afa158015610634573d6000803e3d6000fd5b505050506040513d601f19601f820116820180604052508101906106589190610f85565b6106629190611349565b9050600061067a8383610675878761049f565b610937565b905060008114156106c0576040517f08c379a00000000000000000000000000000000000000000000000000000000081526004016106b79061129c565b60405180910390fd5b80600660008673ffffffffffffffffffffffffffffffffffffffff1673ffffffffffffffffffffffffffffffffffffffff16815260200190815260200160002060008573ffffffffffffffffffffffffffffffffffffffff1673ffffffffffffffffffffffffffffffffffffffff168152602001908152602001600020600082825461074c9190611349565b9250508190555080600560008673ffffffffffffffffffffffffffffffffffffffff1673ffffffffffffffffffffffffffffffffffffffff16815260200190815260200160002060008282546107a29190611349565b925050819055506107b4848483610ab0565b8373ffffffffffffffffffffffffffffffffffffffff167f3be5b7a71e84ed12875d241991c70855ac5817d847039e17a9d895c1ceb0f18a84836040516107fc9291906111d1565b60405180910390a250505050565b6000600482815481106108205761081f611591565b5b9060005260206000200160009054906101000a900473ffffffffffffffffffffffffffffffffffffffff169050919050565b6000600360008373ffffffffffffffffffffffffffffffffffffffff1673ffffffffffffffffffffffffffffffffffffffff168152602001908152602001600020549050919050565b6000600260008373ffffffffffffffffffffffffffffffffffffffff1673ffffffffffffffffffffffffffffffffffffffff168152602001908152602001600020549050919050565b6000600560008373ffffffffffffffffffffffffffffffffffffffff1673ffffffffffffffffffffffffffffffffffffffff168152602001908152602001600020549050919050565b6000600154905090565b600081600054600260008773ffffffffffffffffffffffffffffffffffffffff1673ffffffffffffffffffffffffffffffffffffffff168152602001908152602001600020548561098891906113d0565b610992919061139f565b61099c919061142a565b90509392505050565b803073ffffffffffffffffffffffffffffffffffffffff163110156109ff576040517f08c379a00000000000000000000000000000000000000000000000000000000081526004016109f69061125c565b60405180910390fd5b60008273ffffffffffffffffffffffffffffffffffffffff1682604051610a2590611178565b60006040518083038185875af1925050503d8060008114610a62576040519150601f19603f3d011682016040523d82523d6000602084013e610a67565b606091505b5050905080610aab576040517f08c379a0000000000000000000000000000000000000000000000000000000008152600401610aa29061123c565b60405180910390fd5b505050565b610b4d8363a9059cbb7c0100000000000000000000000000000000000000000000000000000000028484604051602401610aeb9291906111d1565b604051602081830303815290604052907bffffffffffffffffffffffffffffffffffffffffffffffffffffffff19166020820180517bffffffffffffffffffffffffffffffffffffffffffffffffffffffff8381831617835250505050610b52565b505050565b6000610bb4826040518060400160405280602081526020017f5361666545524332303a206c6f772d6c6576656c2063616c6c206661696c65648152508573ffffffffffffffffffffffffffffffffffffffff16610c199092919063ffffffff16565b9050600081511115610c145780806020019051810190610bd49190610ebe565b610c13576040517f08c379a0000000000000000000000000000000000000000000000000000000008152600401610c0a906112dc565b60405180910390fd5b5b505050565b6060610c288484600085610c31565b90509392505050565b6060823073ffffffffffffffffffffffffffffffffffffffff16311015610c8d576040517f08c379a0000000000000000000000000000000000000000000000000000000008152600401610c849061127c565b60405180910390fd5b610c9685610d5c565b610cd5576040517f08c379a0000000000000000000000000000000000000000000000000000000008152600401610ccc906112bc565b60405180910390fd5b6000808673ffffffffffffffffffffffffffffffffffffffff168587604051610cfe9190611161565b60006040518083038185875af1925050503d8060008114610d3b576040519150601f19603f3d011682016040523d82523d6000602084013e610d40565b606091505b5091509150610d50828286610d7f565b92505050949350505050565b6000808273ffffffffffffffffffffffffffffffffffffffff163b119050919050565b60608315610d8f57829050610ddf565b600083511115610da25782518084602001fd5b816040517f08c379a0000000000000000000000000000000000000000000000000000000008152600401610dd691906111fa565b60405180910390fd5b9392505050565b600081359050610df5816117b6565b92915050565b600081359050610e0a816117cd565b92915050565b600081519050610e1f816117e4565b92915050565b600081359050610e34816117fb565b92915050565b600081359050610e4981611812565b92915050565b600081519050610e5e81611812565b92915050565b600060208284031215610e7a57610e796115c0565b5b6000610e8884828501610de6565b91505092915050565b600060208284031215610ea757610ea66115c0565b5b6000610eb584828501610dfb565b91505092915050565b600060208284031215610ed457610ed36115c0565b5b6000610ee284828501610e10565b91505092915050565b600060208284031215610f0157610f006115c0565b5b6000610f0f84828501610e25565b91505092915050565b60008060408385031215610f2f57610f2e6115c0565b5b6000610f3d85828601610e25565b9250506020610f4e85828601610de6565b9150509250929050565b600060208284031215610f6e57610f6d6115c0565b5b6000610f7c84828501610e3a565b91505092915050565b600060208284031215610f9b57610f9a6115c0565b5b6000610fa984828501610e4f565b91505092915050565b610fbb816114ca565b82525050565b610fca8161145e565b82525050565b6000610fdb82611317565b610fe5818561132d565b9350610ff5818560208601611500565b80840191505092915050565b600061100c82611322565b6110168185611338565b9350611026818560208601611500565b61102f816115c5565b840191505092915050565b6000611047602683611338565b9150611052826115d6565b604082019050919050565b600061106a603a83611338565b915061107582611625565b604082019050919050565b600061108d601d83611338565b915061109882611674565b602082019050919050565b60006110b0602683611338565b91506110bb8261169d565b604082019050919050565b60006110d3602b83611338565b91506110de826116ec565b604082019050919050565b60006110f660008361132d565b91506111018261173b565b600082019050919050565b6000611119601d83611338565b91506111248261173e565b602082019050919050565b600061113c602a83611338565b915061114782611767565b604082019050919050565b61115b816114c0565b82525050565b600061116d8284610fd0565b915081905092915050565b6000611183826110e9565b9150819050919050565b60006020820190506111a26000830184610fc1565b92915050565b60006040820190506111bd6000830185610fb2565b6111ca6020830184611152565b9392505050565b60006040820190506111e66000830185610fc1565b6111f36020830184611152565b9392505050565b600060208201905081810360008301526112148184611001565b905092915050565b600060208201905081810360008301526112358161103a565b9050919050565b600060208201905081810360008301526112558161105d565b9050919050565b6000602082019050818103600083015261127581611080565b9050919050565b60006020820190508181036000830152611295816110a3565b9050919050565b600060208201905081810360008301526112b5816110c6565b9050919050565b600060208201905081810360008301526112d58161110c565b9050919050565b600060208201905081810360008301526112f58161112f565b9050919050565b60006020820190506113116000830184611152565b92915050565b600081519050919050565b600081519050919050565b600081905092915050565b600082825260208201905092915050565b6000611354826114c0565b915061135f836114c0565b9250827fffffffffffffffffffffffffffffffffffffffffffffffffffffffffffffffff0382111561139457611393611533565b5b828201905092915050565b60006113aa826114c0565b91506113b5836114c0565b9250826113c5576113c4611562565b5b828204905092915050565b60006113db826114c0565b91506113e6836114c0565b9250817fffffffffffffffffffffffffffffffffffffffffffffffffffffffffffffffff048311821515161561141f5761141e611533565b5b828202905092915050565b6000611435826114c0565b9150611440836114c0565b92508282101561145357611452611533565b5b828203905092915050565b6000611469826114a0565b9050919050565b600061147b826114a0565b9050919050565b60008115159050919050565b60006114998261145e565b9050919050565b600073ffffffffffffffffffffffffffffffffffffffff82169050919050565b6000819050919050565b60006114d5826114dc565b9050919050565b60006114e7826114ee565b9050919050565b60006114f9826114a0565b9050919050565b60005b8381101561151e578082015181840152602081019050611503565b8381111561152d576000848401525b50505050565b7f4e487b7100000000000000000000000000000000000000000000000000000000600052601160045260246000fd5b7f4e487b7100000000000000000000000000000000000000000000000000000000600052601260045260246000fd5b7f4e487b7100000000000000000000000000000000000000000000000000000000600052603260045260246000fd5b600080fd5b6000601f19601f8301169050919050565b7f5061796d656e7453706c69747465723a206163636f756e7420686173206e6f2060008201527f7368617265730000000000000000000000000000000000000000000000000000602082015250565b7f416464726573733a20756e61626c6520746f2073656e642076616c75652c207260008201527f6563697069656e74206d61792068617665207265766572746564000000000000602082015250565b7f416464726573733a20696e73756666696369656e742062616c616e6365000000600082015250565b7f416464726573733a20696e73756666696369656e742062616c616e636520666f60008201527f722063616c6c0000000000000000000000000000000000000000000000000000602082015250565b7f5061796d656e7453706c69747465723a206163636f756e74206973206e6f742060008201527f647565207061796d656e74000000000000000000000000000000000000000000602082015250565b50565b7f416464726573733a2063616c6c20746f206e6f6e2d636f6e7472616374000000600082015250565b7f5361666545524332303a204552433230206f7065726174696f6e20646964206e60008201527f6f74207375636365656400000000000000000000000000000000000000000000602082015250565b6117bf8161145e565b81146117ca57600080fd5b50565b6117d681611470565b81146117e157600080fd5b50565b6117ed81611482565b81146117f857600080fd5b50565b6118048161148e565b811461180f57600080fd5b50565b61181b816114c0565b811461182657600080fd5b5056fea2646970667358221220f24c70c374c687a85f25e6787fd18ac3e258c5d9a94eb752ed11ebdbad983e1c64736f6c63430008070033",
  "immutableReferences": {},
  "source": "// SPDX-License-Identifier: MIT\r\npragma solidity ^0.8.0;\r\n\r\nimport \"@openzeppelin/contracts/finance/PaymentSplitter.sol\";\r\n\r\n/**\r\n* @dev Contract to share all income between two addresses\r\n* [\"0x58165C46208501443eB8a0DbF40799534790176f\", \"0xe61764c28a6dD0742fE7230D5547902F6475e9BF\"]\r\n* [50, 50]\r\n*/\r\ncontract Payment is PaymentSplitter {\r\n    constructor (address[] memory _payees, uint256[] memory _shares) PaymentSplitter(_payees, _shares) payable {}\r\n}",
  "sourcePath": "D:\\TAF\\TUTO\\arkania_homework\\contracts\\Payment.sol",
  "compiler": {
    "name": "solc",
    "version": "0.8.7+commit.e28d00a7.Emscripten.clang"
  },
  "schemaVersion": "3.4.3",
  "updatedAt": "2022-02-19T09:47:21.971Z",
  "devdoc": {
    "details": "Contract to share all income between two addresses [\"0x58165C46208501443eB8a0DbF40799534790176f\", \"0xe61764c28a6dD0742fE7230D5547902F6475e9BF\"] [50, 50]",
    "kind": "dev",
    "methods": {
      "payee(uint256)": {
        "details": "Getter for the address of the payee number `index`."
      },
      "release(address)": {
        "details": "Triggers a transfer to `account` of the amount of Ether they are owed, according to their percentage of the total shares and their previous withdrawals."
      },
      "release(address,address)": {
        "details": "Triggers a transfer to `account` of the amount of `token` tokens they are owed, according to their percentage of the total shares and their previous withdrawals. `token` must be the address of an IERC20 contract."
      },
      "released(address)": {
        "details": "Getter for the amount of Ether already released to a payee."
      },
      "released(address,address)": {
        "details": "Getter for the amount of `token` tokens already released to a payee. `token` should be the address of an IERC20 contract."
      },
      "shares(address)": {
        "details": "Getter for the amount of shares held by an account."
      },
      "totalReleased()": {
        "details": "Getter for the total amount of Ether already released."
      },
      "totalReleased(address)": {
        "details": "Getter for the total amount of `token` already released. `token` should be the address of an IERC20 contract."
      },
      "totalShares()": {
        "details": "Getter for the total shares held by payees."
      }
    },
    "version": 1
  },
  "userdoc": {
    "kind": "user",
    "methods": {},
    "version": 1
  }
}